{"abi":[{"type":"constructor","inputs":[{"name":"name","type":"string","internalType":"string"},{"name":"symbol","type":"string","internalType":"string"},{"name":"baseURI","type":"string","internalType":"string"},{"name":"description","type":"string","internalType":"string"},{"name":"_maxSupply","type":"uint256","internalType":"uint256"},{"name":"initialOwner","type":"address","internalType":"address"}],"stateMutability":"nonpayable"},{"type":"function","name":"approve","inputs":[{"name":"to","type":"address","internalType":"address"},{"name":"tokenId","type":"uint256","internalType":"uint256"}],"outputs":[],"stateMutability":"nonpayable"},{"type":"function","name":"balanceOf","inputs":[{"name":"owner","type":"address","internalType":"address"}],"outputs":[{"name":"","type":"uint256","internalType":"uint256"}],"stateMutability":"view"},{"type":"function","name":"batchMint","inputs":[{"name":"to","type":"address","internalType":"address"},{"name":"quantity","type":"uint256","internalType":"uint256"}],"outputs":[],"stateMutability":"nonpayable"},{"type":"function","name":"collectionDescription","inputs":[],"outputs":[{"name":"","type":"string","internalType":"string"}],"stateMutability":"view"},{"type":"function","name":"getApproved","inputs":[{"name":"tokenId","type":"uint256","internalType":"uint256"}],"outputs":[{"name":"","type":"address","internalType":"address"}],"stateMutability":"view"},{"type":"function","name":"isApprovedForAll","inputs":[{"name":"owner","type":"address","internalType":"address"},{"name":"operator","type":"address","internalType":"address"}],"outputs":[{"name":"","type":"bool","internalType":"bool"}],"stateMutability":"view"},{"type":"function","name":"maxSupply","inputs":[],"outputs":[{"name":"","type":"uint256","internalType":"uint256"}],"stateMutability":"view"},{"type":"function","name":"mint","inputs":[{"name":"to","type":"address","internalType":"address"}],"outputs":[{"name":"","type":"uint256","internalType":"uint256"}],"stateMutability":"nonpayable"},{"type":"function","name":"name","inputs":[],"outputs":[{"name":"","type":"string","internalType":"string"}],"stateMutability":"view"},{"type":"function","name":"owner","inputs":[],"outputs":[{"name":"","type":"address","internalType":"address"}],"stateMutability":"view"},{"type":"function","name":"ownerOf","inputs":[{"name":"tokenId","type":"uint256","internalType":"uint256"}],"outputs":[{"name":"","type":"address","internalType":"address"}],"stateMutability":"view"},{"type":"function","name":"renounceOwnership","inputs":[],"outputs":[],"stateMutability":"nonpayable"},{"type":"function","name":"safeTransferFrom","inputs":[{"name":"from","type":"address","internalType":"address"},{"name":"to","type":"address","internalType":"address"},{"name":"tokenId","type":"uint256","internalType":"uint256"}],"outputs":[],"stateMutability":"nonpayable"},{"type":"function","name":"safeTransferFrom","inputs":[{"name":"from","type":"address","internalType":"address"},{"name":"to","type":"address","internalType":"address"},{"name":"tokenId","type":"uint256","internalType":"uint256"},{"name":"data","type":"bytes","internalType":"bytes"}],"outputs":[],"stateMutability":"nonpayable"},{"type":"function","name":"setApprovalForAll","inputs":[{"name":"operator","type":"address","internalType":"address"},{"name":"approved","type":"bool","internalType":"bool"}],"outputs":[],"stateMutability":"nonpayable"},{"type":"function","name":"setBaseURI","inputs":[{"name":"baseURI","type":"string","internalType":"string"}],"outputs":[],"stateMutability":"nonpayable"},{"type":"function","name":"setTokenURI","inputs":[{"name":"tokenId","type":"uint256","internalType":"uint256"},{"name":"_tokenURI","type":"string","internalType":"string"}],"outputs":[],"stateMutability":"nonpayable"},{"type":"function","name":"supportsInterface","inputs":[{"name":"interfaceId","type":"bytes4","internalType":"bytes4"}],"outputs":[{"name":"","type":"bool","internalType":"bool"}],"stateMutability":"view"},{"type":"function","name":"symbol","inputs":[],"outputs":[{"name":"","type":"string","internalType":"string"}],"stateMutability":"view"},{"type":"function","name":"tokenByIndex","inputs":[{"name":"index","type":"uint256","internalType":"uint256"}],"outputs":[{"name":"","type":"uint256","internalType":"uint256"}],"stateMutability":"view"},{"type":"function","name":"tokenOfOwnerByIndex","inputs":[{"name":"owner","type":"address","internalType":"address"},{"name":"index","type":"uint256","internalType":"uint256"}],"outputs":[{"name":"","type":"uint256","internalType":"uint256"}],"stateMutability":"view"},{"type":"function","name":"tokenURI","inputs":[{"name":"tokenId","type":"uint256","internalType":"uint256"}],"outputs":[{"name":"","type":"string","internalType":"string"}],"stateMutability":"view"},{"type":"function","name":"totalMinted","inputs":[],"outputs":[{"name":"","type":"uint256","internalType":"uint256"}],"stateMutability":"view"},{"type":"function","name":"totalSupply","inputs":[],"outputs":[{"name":"","type":"uint256","internalType":"uint256"}],"stateMutability":"view"},{"type":"function","name":"transferFrom","inputs":[{"name":"from","type":"address","internalType":"address"},{"name":"to","type":"address","internalType":"address"},{"name":"tokenId","type":"uint256","internalType":"uint256"}],"outputs":[],"stateMutability":"nonpayable"},{"type":"function","name":"transferOwnership","inputs":[{"name":"newOwner","type":"address","internalType":"address"}],"outputs":[],"stateMutability":"nonpayable"},{"type":"event","name":"Approval","inputs":[{"name":"owner","type":"address","indexed":true,"internalType":"address"},{"name":"approved","type":"address","indexed":true,"internalType":"address"},{"name":"tokenId","type":"uint256","indexed":true,"internalType":"uint256"}],"anonymous":false},{"type":"event","name":"ApprovalForAll","inputs":[{"name":"owner","type":"address","indexed":true,"internalType":"address"},{"name":"operator","type":"address","indexed":true,"internalType":"address"},{"name":"approved","type":"bool","indexed":false,"internalType":"bool"}],"anonymous":false},{"type":"event","name":"OwnershipTransferred","inputs":[{"name":"previousOwner","type":"address","indexed":true,"internalType":"address"},{"name":"newOwner","type":"address","indexed":true,"internalType":"address"}],"anonymous":false},{"type":"event","name":"TokenMinted","inputs":[{"name":"to","type":"address","indexed":true,"internalType":"address"},{"name":"tokenId","type":"uint256","indexed":true,"internalType":"uint256"}],"anonymous":false},{"type":"event","name":"Transfer","inputs":[{"name":"from","type":"address","indexed":true,"internalType":"address"},{"name":"to","type":"address","indexed":true,"internalType":"address"},{"name":"tokenId","type":"uint256","indexed":true,"internalType":"uint256"}],"anonymous":false},{"type":"error","name":"ERC721EnumerableForbiddenBatchMint","inputs":[]},{"type":"error","name":"ERC721IncorrectOwner","inputs":[{"name":"sender","type":"address","internalType":"address"},{"name":"tokenId","type":"uint256","internalType":"uint256"},{"name":"owner","type":"address","internalType":"address"}]},{"type":"error","name":"ERC721InsufficientApproval","inputs":[{"name":"operator","type":"address","internalType":"address"},{"name":"tokenId","type":"uint256","internalType":"uint256"}]},{"type":"error","name":"ERC721InvalidApprover","inputs":[{"name":"approver","type":"address","internalType":"address"}]},{"type":"error","name":"ERC721InvalidOperator","inputs":[{"name":"operator","type":"address","internalType":"address"}]},{"type":"error","name":"ERC721InvalidOwner","inputs":[{"name":"owner","type":"address","internalType":"address"}]},{"type":"error","name":"ERC721InvalidReceiver","inputs":[{"name":"receiver","type":"address","internalType":"address"}]},{"type":"error","name":"ERC721InvalidSender","inputs":[{"name":"sender","type":"address","internalType":"address"}]},{"type":"error","name":"ERC721NonexistentToken","inputs":[{"name":"tokenId","type":"uint256","internalType":"uint256"}]},{"type":"error","name":"ERC721OutOfBoundsIndex","inputs":[{"name":"owner","type":"address","internalType":"address"},{"name":"index","type":"uint256","internalType":"uint256"}]},{"type":"error","name":"OwnableInvalidOwner","inputs":[{"name":"owner","type":"address","internalType":"address"}]},{"type":"error","name":"OwnableUnauthorizedAccount","inputs":[{"name":"account","type":"address","internalType":"address"}]}],"bytecode":{"object":"0x608060405234801561001057600080fd5b50604051611ea0380380611ea083398101604081905261002f916101d5565b808686600061003e838261033b565b50600161004b828261033b565b5050506001600160a01b03811661007c57604051631e4fbdf760e01b81526000600482015260240160405180910390fd5b610085816100ae565b50600b610092858261033b565b50600e61009f848261033b565b5050600c55506103f992505050565b600a80546001600160a01b038381166001600160a01b0319831681179093556040519116919082907f8be0079c531659141344cd1fd0a4f28419497f9722a3daafe3b4186f6b6457e090600090a35050565b634e487b7160e01b600052604160045260246000fd5b600082601f83011261012757600080fd5b81516001600160401b0381111561014057610140610100565b604051601f8201601f19908116603f011681016001600160401b038111828210171561016e5761016e610100565b60405281815283820160200185101561018657600080fd5b60005b828110156101a557602081860181015183830182015201610189565b506000918101602001919091529392505050565b80516001600160a01b03811681146101d057600080fd5b919050565b60008060008060008060c087890312156101ee57600080fd5b86516001600160401b0381111561020457600080fd5b61021089828a01610116565b602089015190975090506001600160401b0381111561022e57600080fd5b61023a89828a01610116565b604089015190965090506001600160401b0381111561025857600080fd5b61026489828a01610116565b606089015190955090506001600160401b0381111561028257600080fd5b61028e89828a01610116565b608089015190945092506102a6905060a088016101b9565b90509295509295509295565b600181811c908216806102c657607f821691505b6020821081036102e657634e487b7160e01b600052602260045260246000fd5b50919050565b601f82111561033657806000526020600020601f840160051c810160208510156103135750805b601f840160051c820191505b81811015610333576000815560010161031f565b50505b505050565b81516001600160401b0381111561035457610354610100565b6103688161036284546102b2565b846102ec565b6020601f82116001811461039c57600083156103845750848201515b600019600385901b1c1916600184901b178455610333565b600084815260208120601f198516915b828110156103cc57878501518255602094850194600190920191016103ac565b50848210156103ea5786840151600019600387901b60f8161c191681555b50505050600190811b01905550565b611a98806104086000396000f3fe608060405234801561001057600080fd5b506004361061018e5760003560e01c80636a627842116100de578063a2309ff811610097578063d5abeb0111610071578063d5abeb0114610342578063e2c6875c1461034b578063e985e9c514610353578063f2fde38b1461036657600080fd5b8063a2309ff814610314578063b88d4fde1461031c578063c87b56dd1461032f57600080fd5b80636a627842146102ba57806370a08231146102cd578063715018a6146102e05780638da5cb5b146102e857806395d89b41146102f9578063a22cb4651461030157600080fd5b806323b872dd1161014b57806343508b051161012557806343508b051461026e5780634f6ccce71461028157806355f804b3146102945780636352211e146102a757600080fd5b806323b872dd146102355780632f745c591461024857806342842e0e1461025b57600080fd5b806301ffc9a71461019357806306fdde03146101bb578063081812fc146101d0578063095ea7b3146101fb578063162094c41461021057806318160ddd14610223575b600080fd5b6101a66101a13660046114cf565b610379565b60405190151581526020015b60405180910390f35b6101c361038a565b6040516101b2919061153c565b6101e36101de36600461154f565b61041c565b6040516001600160a01b0390911681526020016101b2565b61020e61020936600461157f565b610445565b005b61020e61021e366004611659565b610454565b6008545b6040519081526020016101b2565b61020e6102433660046116a0565b6104d9565b61022761025636600461157f565b610564565b61020e6102693660046116a0565b6105c9565b61020e61027c36600461157f565b6105e4565b61022761028f36600461154f565b610668565b61020e6102a23660046116dd565b6106c1565b6101e36102b536600461154f565b6106d5565b6102276102c8366004611712565b6106e0565b6102276102db366004611712565b610796565b61020e6107de565b600a546001600160a01b03166101e3565b6101c36107f2565b61020e61030f36600461172d565b610801565b600d54610227565b61020e61032a366004611769565b61080c565b6101c361033d36600461154f565b610824565b610227600c5481565b6101c3610982565b6101a66103613660046117e5565b610a10565b61020e610374366004611712565b610a3e565b600061038482610a7c565b92915050565b60606000805461039990611818565b80601f01602080910402602001604051908101604052809291908181526020018280546103c590611818565b80156104125780601f106103e757610100808354040283529160200191610412565b820191906000526020600020905b8154815290600101906020018083116103f557829003601f168201915b5050505050905090565b600061042782610aa1565b506000828152600460205260409020546001600160a01b0316610384565b610450828233610ada565b5050565b61045c610ae7565b6000828152600260205260409020546001600160a01b03166104bc5760405162461bcd60e51b8152602060048201526014602482015273151bdad95b88191bd95cc81b9bdd08195e1a5cdd60621b60448201526064015b60405180910390fd5b6000828152600f602052604090206104d48282611899565b505050565b6001600160a01b03821661050357604051633250574960e11b8152600060048201526024016104b3565b6000610510838333610b14565b9050836001600160a01b0316816001600160a01b03161461055e576040516364283d7b60e01b81526001600160a01b03808616600483015260248201849052821660448201526064016104b3565b50505050565b600061056f83610796565b82106105a05760405163295f44f760e21b81526001600160a01b0384166004820152602481018390526044016104b3565b506001600160a01b03919091166000908152600660209081526040808320938352929052205490565b6104d48383836040518060200160405280600081525061080c565b6105ec610ae7565b600c5481600d546105fd919061196e565b111561064b5760405162461bcd60e51b815260206004820152601b60248201527f576f756c6420657863656564206d6178696d756d20737570706c79000000000060448201526064016104b3565b60005b818110156104d45761065f836106e0565b5060010161064e565b600061067360085490565b821061069c5760405163295f44f760e21b815260006004820152602481018390526044016104b3565b600882815481106106af576106af611981565b90600052602060002001549050919050565b6106c9610ae7565b600b6104508282611899565b600061038482610aa1565b60006106ea610ae7565b600c54600d54106107365760405162461bcd60e51b815260206004820152601660248201527513585e1a5b5d5b481cdd5c1c1b1e481c995858da195960521b60448201526064016104b3565b600d805490600061074683611997565b9091555050600d546107588382610b29565b60405181906001600160a01b038516907fb9144c96c86541f6fa89c9f2f02495cccf4b08cd6643e26d34ee00aa586558a890600090a390505b919050565b60006001600160a01b0382166107c2576040516322718ad960e21b8152600060048201526024016104b3565b506001600160a01b031660009081526003602052604090205490565b6107e6610ae7565b6107f06000610b43565b565b60606001805461039990611818565b610450338383610b95565b6108178484846104d9565b61055e3385858585610c34565b6000818152600260205260409020546060906001600160a01b03166108825760405162461bcd60e51b8152602060048201526014602482015273151bdad95b88191bd95cc81b9bdd08195e1a5cdd60621b60448201526064016104b3565b6000828152600f60205260408120805461089b90611818565b80601f01602080910402602001604051908101604052809291908181526020018280546108c790611818565b80156109145780601f106108e957610100808354040283529160200191610914565b820191906000526020600020905b8154815290600101906020018083116108f757829003601f168201915b50505050509050805160000361038457600061092e610d5f565b5111610949576040518060200160405280600081525061097b565b610951610d5f565b61095a84610d6e565b60405160200161096b9291906119b0565b6040516020818303038152906040525b9392505050565b600e805461098f90611818565b80601f01602080910402602001604051908101604052809291908181526020018280546109bb90611818565b8015610a085780601f106109dd57610100808354040283529160200191610a08565b820191906000526020600020905b8154815290600101906020018083116109eb57829003601f168201915b505050505081565b6001600160a01b03918216600090815260056020908152604080832093909416825291909152205460ff1690565b610a46610ae7565b6001600160a01b038116610a7057604051631e4fbdf760e01b8152600060048201526024016104b3565b610a7981610b43565b50565b60006001600160e01b0319821663780e9d6360e01b1480610384575061038482610e01565b6000818152600260205260408120546001600160a01b03168061038457604051637e27328960e01b8152600481018490526024016104b3565b6104d48383836001610e51565b600a546001600160a01b031633146107f05760405163118cdaa760e01b81523360048201526024016104b3565b6000610b21848484610f57565b949350505050565b610450828260405180602001604052806000815250611024565b600a80546001600160a01b038381166001600160a01b0319831681179093556040519116919082907f8be0079c531659141344cd1fd0a4f28419497f9722a3daafe3b4186f6b6457e090600090a35050565b6001600160a01b038216610bc757604051630b61174360e31b81526001600160a01b03831660048201526024016104b3565b6001600160a01b03838116600081815260056020908152604080832094871680845294825291829020805460ff191686151590811790915591519182527f17307eab39ab6107e8899845ad3d59bd9653f200f220920489ca2b5937696c31910160405180910390a3505050565b6001600160a01b0383163b15610d5857604051630a85bd0160e11b81526001600160a01b0384169063150b7a0290610c769088908890879087906004016119df565b6020604051808303816000875af1925050508015610cb1575060408051601f3d908101601f19168201909252610cae91810190611a1c565b60015b610d1a573d808015610cdf576040519150601f19603f3d011682016040523d82523d6000602084013e610ce4565b606091505b508051600003610d1257604051633250574960e11b81526001600160a01b03851660048201526024016104b3565b805181602001fd5b6001600160e01b03198116630a85bd0160e11b14610d5657604051633250574960e11b81526001600160a01b03851660048201526024016104b3565b505b5050505050565b6060600b805461039990611818565b60606000610d7b8361103c565b600101905060008167ffffffffffffffff811115610d9b57610d9b6115a9565b6040519080825280601f01601f191660200182016040528015610dc5576020820181803683370190505b5090508181016020015b600019016f181899199a1a9b1b9c1cb0b131b232b360811b600a86061a8153600a8504945084610dcf57509392505050565b60006001600160e01b031982166380ac58cd60e01b1480610e3257506001600160e01b03198216635b5e139f60e01b145b8061038457506301ffc9a760e01b6001600160e01b0319831614610384565b8080610e6557506001600160a01b03821615155b15610f27576000610e7584610aa1565b90506001600160a01b03831615801590610ea15750826001600160a01b0316816001600160a01b031614155b8015610eb45750610eb28184610a10565b155b15610edd5760405163a9fbf51f60e01b81526001600160a01b03841660048201526024016104b3565b8115610f255783856001600160a01b0316826001600160a01b03167f8c5be1e5ebec7d5bd14f71427d1e84f3dd0314c0f7b2291e5b200ac8c7c3b92560405160405180910390a45b505b5050600090815260046020526040902080546001600160a01b0319166001600160a01b0392909216919091179055565b600080610f65858585611114565b90506001600160a01b038116610fc257610fbd84600880546000838152600960205260408120829055600182018355919091527ff3f7a9fe364faab93b216da50a3214154f22a0a2b415b23a84c8169e8b636ee30155565b610fe5565b846001600160a01b0316816001600160a01b031614610fe557610fe5818561120d565b6001600160a01b03851661100157610ffc8461128e565b610b21565b846001600160a01b0316816001600160a01b031614610b2157610b21858561133d565b61102e838361138d565b6104d4336000858585610c34565b60008072184f03e93ff9f4daa797ed6e38ed64bf6a1f0160401b831061107b5772184f03e93ff9f4daa797ed6e38ed64bf6a1f0160401b830492506040015b6d04ee2d6d415b85acef810000000083106110a7576d04ee2d6d415b85acef8100000000830492506020015b662386f26fc1000083106110c557662386f26fc10000830492506010015b6305f5e10083106110dd576305f5e100830492506008015b61271083106110f157612710830492506004015b60648310611103576064830492506002015b600a83106103845760010192915050565b6000828152600260205260408120546001600160a01b0390811690831615611141576111418184866113f2565b6001600160a01b0381161561117f5761115e600085600080610e51565b6001600160a01b038116600090815260036020526040902080546000190190555b6001600160a01b038516156111ae576001600160a01b0385166000908152600360205260409020805460010190555b60008481526002602052604080822080546001600160a01b0319166001600160a01b0389811691821790925591518793918516917fddf252ad1be2c89b69c2b068fc378daa952ba7f163c4a11628f55a4df523b3ef91a4949350505050565b600061121883610796565b6000838152600760209081526040808320546001600160a01b038816845260069092529091209192509081831461126f57600083815260208281526040808320548584528184208190558352600790915290208290555b6000938452600760209081526040808620869055938552525081205550565b6008546000906112a090600190611a39565b600083815260096020526040812054600880549394509092849081106112c8576112c8611981565b9060005260206000200154905080600883815481106112e9576112e9611981565b600091825260208083209091019290925582815260099091526040808220849055858252812055600880548061132157611321611a4c565b6001900381819060005260206000200160009055905550505050565b6000600161134a84610796565b6113549190611a39565b6001600160a01b039093166000908152600660209081526040808320868452825280832085905593825260079052919091209190915550565b6001600160a01b0382166113b757604051633250574960e11b8152600060048201526024016104b3565b60006113c583836000610b14565b90506001600160a01b038116156104d4576040516339e3563760e11b8152600060048201526024016104b3565b6113fd838383611456565b6104d4576001600160a01b03831661142b57604051637e27328960e01b8152600481018290526024016104b3565b60405163177e802f60e01b81526001600160a01b0383166004820152602481018290526044016104b3565b60006001600160a01b03831615801590610b215750826001600160a01b0316846001600160a01b0316148061149057506114908484610a10565b80610b215750506000908152600460205260409020546001600160a01b03908116911614919050565b6001600160e01b031981168114610a7957600080fd5b6000602082840312156114e157600080fd5b813561097b816114b9565b60005b838110156115075781810151838201526020016114ef565b50506000910152565b600081518084526115288160208601602086016114ec565b601f01601f19169290920160200192915050565b60208152600061097b6020830184611510565b60006020828403121561156157600080fd5b5035919050565b80356001600160a01b038116811461079157600080fd5b6000806040838503121561159257600080fd5b61159b83611568565b946020939093013593505050565b634e487b7160e01b600052604160045260246000fd5b60008067ffffffffffffffff8411156115da576115da6115a9565b50604051601f19601f85018116603f0116810181811067ffffffffffffffff82111715611609576116096115a9565b60405283815290508082840185101561162157600080fd5b83836020830137600060208583010152509392505050565b600082601f83011261164a57600080fd5b61097b838335602085016115bf565b6000806040838503121561166c57600080fd5b82359150602083013567ffffffffffffffff81111561168a57600080fd5b61169685828601611639565b9150509250929050565b6000806000606084860312156116b557600080fd5b6116be84611568565b92506116cc60208501611568565b929592945050506040919091013590565b6000602082840312156116ef57600080fd5b813567ffffffffffffffff81111561170657600080fd5b610b2184828501611639565b60006020828403121561172457600080fd5b61097b82611568565b6000806040838503121561174057600080fd5b61174983611568565b91506020830135801515811461175e57600080fd5b809150509250929050565b6000806000806080858703121561177f57600080fd5b61178885611568565b935061179660208601611568565b925060408501359150606085013567ffffffffffffffff8111156117b957600080fd5b8501601f810187136117ca57600080fd5b6117d9878235602084016115bf565b91505092959194509250565b600080604083850312156117f857600080fd5b61180183611568565b915061180f60208401611568565b90509250929050565b600181811c9082168061182c57607f821691505b60208210810361184c57634e487b7160e01b600052602260045260246000fd5b50919050565b601f8211156104d457806000526020600020601f840160051c810160208510156118795750805b601f840160051c820191505b81811015610d585760008155600101611885565b815167ffffffffffffffff8111156118b3576118b36115a9565b6118c7816118c18454611818565b84611852565b6020601f8211600181146118fb57600083156118e35750848201515b600019600385901b1c1916600184901b178455610d58565b600084815260208120601f198516915b8281101561192b578785015182556020948501946001909201910161190b565b50848210156119495786840151600019600387901b60f8161c191681555b50505050600190811b01905550565b634e487b7160e01b600052601160045260246000fd5b8082018082111561038457610384611958565b634e487b7160e01b600052603260045260246000fd5b6000600182016119a9576119a9611958565b5060010190565b600083516119c28184602088016114ec565b8351908301906119d68183602088016114ec565b01949350505050565b6001600160a01b0385811682528416602082015260408101839052608060608201819052600090611a1290830184611510565b9695505050505050565b600060208284031215611a2e57600080fd5b815161097b816114b9565b8181038181111561038457610384611958565b634e487b7160e01b600052603160045260246000fdfea26469706673582212208a0c045400d9845ab7aeb731f72e1566bd8ca7805518511fec85d3dd01d11b4c64736f6c634300081c0033","linkReferences":{}},"methodIdentifiers":{"approve(address,uint256)":"095ea7b3","balanceOf(address)":"70a08231","batchMint(address,uint256)":"43508b05","collectionDescription()":"e2c6875c","getApproved(uint256)":"081812fc","isApprovedForAll(address,address)":"e985e9c5","maxSupply()":"d5abeb01","mint(address)":"6a627842","name()":"06fdde03","owner()":"8da5cb5b","ownerOf(uint256)":"6352211e","renounceOwnership()":"715018a6","safeTransferFrom(address,address,uint256)":"42842e0e","safeTransferFrom(address,address,uint256,bytes)":"b88d4fde","setApprovalForAll(address,bool)":"a22cb465","setBaseURI(string)":"55f804b3","setTokenURI(uint256,string)":"162094c4","supportsInterface(bytes4)":"01ffc9a7","symbol()":"95d89b41","tokenByIndex(uint256)":"4f6ccce7","tokenOfOwnerByIndex(address,uint256)":"2f745c59","tokenURI(uint256)":"c87b56dd","totalMinted()":"a2309ff8","totalSupply()":"18160ddd","transferFrom(address,address,uint256)":"23b872dd","transferOwnership(address)":"f2fde38b"},"id":0}